{
  "_format": "hh-sol-artifact-1",
  "contractName": "MiliGentsINFT",
  "sourceName": "contracts/INFT.sol",
  "abi": [
    {
      "inputs": [],
      "stateMutability": "nonpayable",
      "type": "constructor"
    },
    {
      "inputs": [
        {
          "internalType": "address",
          "name": "sender",
          "type": "address"
        },
        {
          "internalType": "uint256",
          "name": "tokenId",
          "type": "uint256"
        },
        {
          "internalType": "address",
          "name": "owner",
          "type": "address"
        }
      ],
      "name": "ERC721IncorrectOwner",
      "type": "error"
    },
    {
      "inputs": [
        {
          "internalType": "address",
          "name": "operator",
          "type": "address"
        },
        {
          "internalType": "uint256",
          "name": "tokenId",
          "type": "uint256"
        }
      ],
      "name": "ERC721InsufficientApproval",
      "type": "error"
    },
    {
      "inputs": [
        {
          "internalType": "address",
          "name": "approver",
          "type": "address"
        }
      ],
      "name": "ERC721InvalidApprover",
      "type": "error"
    },
    {
      "inputs": [
        {
          "internalType": "address",
          "name": "operator",
          "type": "address"
        }
      ],
      "name": "ERC721InvalidOperator",
      "type": "error"
    },
    {
      "inputs": [
        {
          "internalType": "address",
          "name": "owner",
          "type": "address"
        }
      ],
      "name": "ERC721InvalidOwner",
      "type": "error"
    },
    {
      "inputs": [
        {
          "internalType": "address",
          "name": "receiver",
          "type": "address"
        }
      ],
      "name": "ERC721InvalidReceiver",
      "type": "error"
    },
    {
      "inputs": [
        {
          "internalType": "address",
          "name": "sender",
          "type": "address"
        }
      ],
      "name": "ERC721InvalidSender",
      "type": "error"
    },
    {
      "inputs": [
        {
          "internalType": "uint256",
          "name": "tokenId",
          "type": "uint256"
        }
      ],
      "name": "ERC721NonexistentToken",
      "type": "error"
    },
    {
      "inputs": [
        {
          "internalType": "address",
          "name": "owner",
          "type": "address"
        }
      ],
      "name": "OwnableInvalidOwner",
      "type": "error"
    },
    {
      "inputs": [
        {
          "internalType": "address",
          "name": "account",
          "type": "address"
        }
      ],
      "name": "OwnableUnauthorizedAccount",
      "type": "error"
    },
    {
      "anonymous": false,
      "inputs": [
        {
          "indexed": true,
          "internalType": "address",
          "name": "owner",
          "type": "address"
        },
        {
          "indexed": true,
          "internalType": "address",
          "name": "approved",
          "type": "address"
        },
        {
          "indexed": true,
          "internalType": "uint256",
          "name": "tokenId",
          "type": "uint256"
        }
      ],
      "name": "Approval",
      "type": "event"
    },
    {
      "anonymous": false,
      "inputs": [
        {
          "indexed": true,
          "internalType": "address",
          "name": "owner",
          "type": "address"
        },
        {
          "indexed": true,
          "internalType": "address",
          "name": "operator",
          "type": "address"
        },
        {
          "indexed": false,
          "internalType": "bool",
          "name": "approved",
          "type": "bool"
        }
      ],
      "name": "ApprovalForAll",
      "type": "event"
    },
    {
      "anonymous": false,
      "inputs": [
        {
          "indexed": true,
          "internalType": "uint256",
          "name": "tokenId",
          "type": "uint256"
        },
        {
          "indexed": true,
          "internalType": "address",
          "name": "owner",
          "type": "address"
        },
        {
          "indexed": false,
          "internalType": "string",
          "name": "storageURI",
          "type": "string"
        },
        {
          "indexed": false,
          "internalType": "bytes32",
          "name": "metadataHash",
          "type": "bytes32"
        },
        {
          "indexed": false,
          "internalType": "uint256",
          "name": "version",
          "type": "uint256"
        }
      ],
      "name": "INFTMinted",
      "type": "event"
    },
    {
      "anonymous": false,
      "inputs": [
        {
          "indexed": true,
          "internalType": "uint256",
          "name": "tokenId",
          "type": "uint256"
        },
        {
          "indexed": false,
          "internalType": "string",
          "name": "newStorageURI",
          "type": "string"
        },
        {
          "indexed": false,
          "internalType": "bytes32",
          "name": "newMetadataHash",
          "type": "bytes32"
        },
        {
          "indexed": false,
          "internalType": "uint256",
          "name": "newVersion",
          "type": "uint256"
        }
      ],
      "name": "INFTUpdated",
      "type": "event"
    },
    {
      "anonymous": false,
      "inputs": [
        {
          "indexed": true,
          "internalType": "address",
          "name": "previousOwner",
          "type": "address"
        },
        {
          "indexed": true,
          "internalType": "address",
          "name": "newOwner",
          "type": "address"
        }
      ],
      "name": "OwnershipTransferred",
      "type": "event"
    },
    {
      "anonymous": false,
      "inputs": [
        {
          "indexed": true,
          "internalType": "address",
          "name": "from",
          "type": "address"
        },
        {
          "indexed": true,
          "internalType": "address",
          "name": "to",
          "type": "address"
        },
        {
          "indexed": true,
          "internalType": "uint256",
          "name": "tokenId",
          "type": "uint256"
        }
      ],
      "name": "Transfer",
      "type": "event"
    },
    {
      "inputs": [
        {
          "internalType": "address",
          "name": "to",
          "type": "address"
        },
        {
          "internalType": "uint256",
          "name": "tokenId",
          "type": "uint256"
        }
      ],
      "name": "approve",
      "outputs": [],
      "stateMutability": "nonpayable",
      "type": "function"
    },
    {
      "inputs": [
        {
          "internalType": "address",
          "name": "owner",
          "type": "address"
        }
      ],
      "name": "balanceOf",
      "outputs": [
        {
          "internalType": "uint256",
          "name": "",
          "type": "uint256"
        }
      ],
      "stateMutability": "view",
      "type": "function"
    },
    {
      "inputs": [
        {
          "internalType": "uint256",
          "name": "tokenId",
          "type": "uint256"
        }
      ],
      "name": "getApproved",
      "outputs": [
        {
          "internalType": "address",
          "name": "",
          "type": "address"
        }
      ],
      "stateMutability": "view",
      "type": "function"
    },
    {
      "inputs": [
        {
          "internalType": "uint256",
          "name": "tokenId",
          "type": "uint256"
        }
      ],
      "name": "getINFT",
      "outputs": [
        {
          "internalType": "string",
          "name": "storageURI",
          "type": "string"
        },
        {
          "internalType": "bytes32",
          "name": "metadataHash",
          "type": "bytes32"
        },
        {
          "internalType": "uint256",
          "name": "version",
          "type": "uint256"
        },
        {
          "internalType": "address",
          "name": "owner",
          "type": "address"
        }
      ],
      "stateMutability": "view",
      "type": "function"
    },
    {
      "inputs": [
        {
          "internalType": "address",
          "name": "owner",
          "type": "address"
        },
        {
          "internalType": "address",
          "name": "operator",
          "type": "address"
        }
      ],
      "name": "isApprovedForAll",
      "outputs": [
        {
          "internalType": "bool",
          "name": "",
          "type": "bool"
        }
      ],
      "stateMutability": "view",
      "type": "function"
    },
    {
      "inputs": [
        {
          "internalType": "address",
          "name": "to",
          "type": "address"
        },
        {
          "internalType": "string",
          "name": "storageURI",
          "type": "string"
        },
        {
          "internalType": "bytes32",
          "name": "metadataHash",
          "type": "bytes32"
        }
      ],
      "name": "mint",
      "outputs": [
        {
          "internalType": "uint256",
          "name": "",
          "type": "uint256"
        }
      ],
      "stateMutability": "nonpayable",
      "type": "function"
    },
    {
      "inputs": [],
      "name": "name",
      "outputs": [
        {
          "internalType": "string",
          "name": "",
          "type": "string"
        }
      ],
      "stateMutability": "view",
      "type": "function"
    },
    {
      "inputs": [],
      "name": "owner",
      "outputs": [
        {
          "internalType": "address",
          "name": "",
          "type": "address"
        }
      ],
      "stateMutability": "view",
      "type": "function"
    },
    {
      "inputs": [
        {
          "internalType": "uint256",
          "name": "tokenId",
          "type": "uint256"
        }
      ],
      "name": "ownerOf",
      "outputs": [
        {
          "internalType": "address",
          "name": "",
          "type": "address"
        }
      ],
      "stateMutability": "view",
      "type": "function"
    },
    {
      "inputs": [],
      "name": "renounceOwnership",
      "outputs": [],
      "stateMutability": "nonpayable",
      "type": "function"
    },
    {
      "inputs": [
        {
          "internalType": "address",
          "name": "from",
          "type": "address"
        },
        {
          "internalType": "address",
          "name": "to",
          "type": "address"
        },
        {
          "internalType": "uint256",
          "name": "tokenId",
          "type": "uint256"
        }
      ],
      "name": "safeTransferFrom",
      "outputs": [],
      "stateMutability": "nonpayable",
      "type": "function"
    },
    {
      "inputs": [
        {
          "internalType": "address",
          "name": "from",
          "type": "address"
        },
        {
          "internalType": "address",
          "name": "to",
          "type": "address"
        },
        {
          "internalType": "uint256",
          "name": "tokenId",
          "type": "uint256"
        },
        {
          "internalType": "bytes",
          "name": "data",
          "type": "bytes"
        }
      ],
      "name": "safeTransferFrom",
      "outputs": [],
      "stateMutability": "nonpayable",
      "type": "function"
    },
    {
      "inputs": [
        {
          "internalType": "address",
          "name": "operator",
          "type": "address"
        },
        {
          "internalType": "bool",
          "name": "approved",
          "type": "bool"
        }
      ],
      "name": "setApprovalForAll",
      "outputs": [],
      "stateMutability": "nonpayable",
      "type": "function"
    },
    {
      "inputs": [
        {
          "internalType": "bytes4",
          "name": "interfaceId",
          "type": "bytes4"
        }
      ],
      "name": "supportsInterface",
      "outputs": [
        {
          "internalType": "bool",
          "name": "",
          "type": "bool"
        }
      ],
      "stateMutability": "view",
      "type": "function"
    },
    {
      "inputs": [],
      "name": "symbol",
      "outputs": [
        {
          "internalType": "string",
          "name": "",
          "type": "string"
        }
      ],
      "stateMutability": "view",
      "type": "function"
    },
    {
      "inputs": [
        {
          "internalType": "uint256",
          "name": "tokenId",
          "type": "uint256"
        }
      ],
      "name": "tokenURI",
      "outputs": [
        {
          "internalType": "string",
          "name": "",
          "type": "string"
        }
      ],
      "stateMutability": "view",
      "type": "function"
    },
    {
      "inputs": [
        {
          "internalType": "address",
          "name": "from",
          "type": "address"
        },
        {
          "internalType": "address",
          "name": "to",
          "type": "address"
        },
        {
          "internalType": "uint256",
          "name": "tokenId",
          "type": "uint256"
        }
      ],
      "name": "transferFrom",
      "outputs": [],
      "stateMutability": "nonpayable",
      "type": "function"
    },
    {
      "inputs": [
        {
          "internalType": "address",
          "name": "newOwner",
          "type": "address"
        }
      ],
      "name": "transferOwnership",
      "outputs": [],
      "stateMutability": "nonpayable",
      "type": "function"
    },
    {
      "inputs": [
        {
          "internalType": "uint256",
          "name": "tokenId",
          "type": "uint256"
        },
        {
          "internalType": "string",
          "name": "newStorageURI",
          "type": "string"
        },
        {
          "internalType": "bytes32",
          "name": "newMetadataHash",
          "type": "bytes32"
        }
      ],
      "name": "updateStrategy",
      "outputs": [],
      "stateMutability": "nonpayable",
      "type": "function"
    }
  ],
  "bytecode": "0x60806040526001600a5534801562000015575f80fd5b50336040518060400160405280601a81526020017f4d696c6947656e747320496e74656c6c6967656e6365204e465400000000000081525060405180604001604052806005815260200164135253919560da1b815250815f90816200007b9190620001bc565b5060016200008a8282620001bc565b5050506001600160a01b038116620000bb57604051631e4fbdf760e01b81525f600482015260240160405180910390fd5b620000c681620000cd565b5062000288565b600680546001600160a01b038381166001600160a01b0319831681179093556040519116919082907f8be0079c531659141344cd1fd0a4f28419497f9722a3daafe3b4186f6b6457e0905f90a35050565b634e487b7160e01b5f52604160045260245ffd5b600181811c908216806200014757607f821691505b6020821081036200016657634e487b7160e01b5f52602260045260245ffd5b50919050565b601f821115620001b757805f5260205f20601f840160051c81016020851015620001935750805b601f840160051c820191505b81811015620001b4575f81556001016200019f565b50505b505050565b81516001600160401b03811115620001d857620001d86200011e565b620001f081620001e9845462000132565b846200016c565b602080601f83116001811462000226575f84156200020e5750858301515b5f19600386901b1c1916600185901b17855562000280565b5f85815260208120601f198616915b82811015620002565788860151825594840194600190910190840162000235565b50858210156200027457878501515f19600388901b60f8161c191681555b505060018460011b0185555b505050505050565b61165c80620002965f395ff3fe608060405234801561000f575f80fd5b506004361061011c575f3560e01c806370a08231116100a9578063b88d4fde1161006e578063b88d4fde14610261578063c87b56dd14610274578063d34047b614610287578063e985e9c51461029a578063f2fde38b146102ad575f80fd5b806370a082311461020c578063715018a61461022d5780638da5cb5b1461023557806395d89b4114610246578063a22cb4651461024e575f80fd5b806323b872dd116100ef57806323b872dd1461019d5780634081f732146101b057806342842e0e146101d3578063630ff0d7146101e65780636352211e146101f9575f80fd5b806301ffc9a71461012057806306fdde0314610148578063081812fc1461015d578063095ea7b314610188575b5f80fd5b61013361012e366004611063565b6102c0565b60405190151581526020015b60405180910390f35b610150610311565b60405161013f91906110cb565b61017061016b3660046110dd565b6103a0565b6040516001600160a01b03909116815260200161013f565b61019b61019636600461110f565b6103c7565b005b61019b6101ab366004611137565b6103d6565b6101c36101be3660046110dd565b610464565b60405161013f9493929190611170565b61019b6101e1366004611137565b6105a4565b61019b6101f43660046111ec565b6105c3565b6101706102073660046110dd565b6106c1565b61021f61021a36600461123b565b6106cb565b60405190815260200161013f565b61019b610710565b6006546001600160a01b0316610170565b610150610723565b61019b61025c366004611254565b610732565b61019b61026f3660046112a1565b61073d565b6101506102823660046110dd565b610755565b61021f610295366004611376565b6107c6565b6101336102a83660046113ad565b61087c565b61019b6102bb36600461123b565b6108a9565b5f6001600160e01b031982166380ac58cd60e01b14806102f057506001600160e01b03198216635b5e139f60e01b145b8061030b57506301ffc9a760e01b6001600160e01b03198316145b92915050565b60605f805461031f906113de565b80601f016020809104026020016040519081016040528092919081815260200182805461034b906113de565b80156103965780601f1061036d57610100808354040283529160200191610396565b820191905f5260205f20905b81548152906001019060200180831161037957829003601f168201915b5050505050905090565b5f6103aa826108e6565b505f828152600460205260409020546001600160a01b031661030b565b6103d282823361091e565b5050565b6001600160a01b03821661040457604051633250574960e11b81525f60048201526024015b60405180910390fd5b5f61041083833361092b565b9050836001600160a01b0316816001600160a01b03161461045e576040516364283d7b60e01b81526001600160a01b03808616600483015260248201849052821660448201526064016103fb565b50505050565b60605f808080610488865f908152600260205260409020546001600160a01b031690565b6001600160a01b0316036104d55760405162461bcd60e51b8152602060048201526014602482015273151bdad95b88191bd95cc81b9bdd08195e1a5cdd60621b60448201526064016103fb565b5f85815260086020908152604080832060078352818420546009845282852054600290945291909320549091906001600160a01b0316838054610517906113de565b80601f0160208091040260200160405190810160405280929190818152602001828054610543906113de565b801561058e5780601f106105655761010080835404028352916020019161058e565b820191905f5260205f20905b81548152906001019060200180831161057157829003601f168201915b5050505050935093509350935093509193509193565b6105be83838360405180602001604052805f81525061073d565b505050565b6105cb610a1d565b5f848152600260205260409020546001600160a01b03166106255760405162461bcd60e51b8152602060048201526014602482015273151bdad95b88191bd95cc81b9bdd08195e1a5cdd60621b60448201526064016103fb565b5f84815260086020526040902061063d83858361145a565b505f84815260076020908152604080832084905560099091528120805460019290610669908490611528565b90915550505f848152600960205260409081902054905185917f57092b680c418ca760dd383479ea6a84c9610a41776bc8d35ca2fd128b509284916106b391879187918791611563565b60405180910390a250505050565b5f61030b826108e6565b5f6001600160a01b0382166106f5576040516322718ad960e21b81525f60048201526024016103fb565b506001600160a01b03165f9081526003602052604090205490565b610718610a1d565b6107215f610a4a565b565b60606001805461031f906113de565b6103d2338383610a9b565b6107488484846103d6565b61045e3385858585610b62565b6060610760826108e6565b505f61077660408051602081019091525f815290565b90505f8151116107945760405180602001604052805f8152506107bf565b8061079e84610c8a565b6040516020016107af929190611589565b6040516020818303038152906040525b9392505050565b5f6107cf610a1d565b600a80545f91826107df836115b7565b9190505590506107ef8682610d1a565b5f81815260086020526040902061080785878361145a565b505f81815260076020908152604080832086905560099091529081902060019081905590516001600160a01b0388169183917ff6455b0f2f25467ee7d19996f4708817db3234c446da43ec53572db79825635b9161086b918a918a918a9190611563565b60405180910390a395945050505050565b6001600160a01b039182165f90815260056020908152604080832093909416825291909152205460ff1690565b6108b1610a1d565b6001600160a01b0381166108da57604051631e4fbdf760e01b81525f60048201526024016103fb565b6108e381610a4a565b50565b5f818152600260205260408120546001600160a01b03168061030b57604051637e27328960e01b8152600481018490526024016103fb565b6105be8383836001610d33565b5f828152600260205260408120546001600160a01b039081169083161561095757610957818486610e37565b6001600160a01b03811615610991576109725f855f80610d33565b6001600160a01b0381165f90815260036020526040902080545f190190555b6001600160a01b038516156109bf576001600160a01b0385165f908152600360205260409020805460010190555b5f8481526002602052604080822080546001600160a01b0319166001600160a01b0389811691821790925591518793918516917fddf252ad1be2c89b69c2b068fc378daa952ba7f163c4a11628f55a4df523b3ef91a4949350505050565b6006546001600160a01b031633146107215760405163118cdaa760e01b81523360048201526024016103fb565b600680546001600160a01b038381166001600160a01b0319831681179093556040519116919082907f8be0079c531659141344cd1fd0a4f28419497f9722a3daafe3b4186f6b6457e0905f90a35050565b6001600160a01b038316610ac45760405163a9fbf51f60e01b81525f60048201526024016103fb565b6001600160a01b038216610af657604051630b61174360e31b81526001600160a01b03831660048201526024016103fb565b6001600160a01b038381165f81815260056020908152604080832094871680845294825291829020805460ff191686151590811790915591519182527f17307eab39ab6107e8899845ad3d59bd9653f200f220920489ca2b5937696c31910160405180910390a3505050565b6001600160a01b0383163b15610c8357604051630a85bd0160e11b81526001600160a01b0384169063150b7a0290610ba49088908890879087906004016115cf565b6020604051808303815f875af1925050508015610bde575060408051601f3d908101601f19168201909252610bdb9181019061160b565b60015b610c45573d808015610c0b576040519150601f19603f3d011682016040523d82523d5f602084013e610c10565b606091505b5080515f03610c3d57604051633250574960e11b81526001600160a01b03851660048201526024016103fb565b805160208201fd5b6001600160e01b03198116630a85bd0160e11b14610c8157604051633250574960e11b81526001600160a01b03851660048201526024016103fb565b505b5050505050565b60605f610c9683610e9b565b60010190505f8167ffffffffffffffff811115610cb557610cb561128d565b6040519080825280601f01601f191660200182016040528015610cdf576020820181803683370190505b5090508181016020015b5f19016f181899199a1a9b1b9c1cb0b131b232b360811b600a86061a8153600a8504945084610ce957509392505050565b6103d2828260405180602001604052805f815250610f72565b8080610d4757506001600160a01b03821615155b15610e08575f610d56846108e6565b90506001600160a01b03831615801590610d825750826001600160a01b0316816001600160a01b031614155b8015610d955750610d93818461087c565b155b15610dbe5760405163a9fbf51f60e01b81526001600160a01b03841660048201526024016103fb565b8115610e065783856001600160a01b0316826001600160a01b03167f8c5be1e5ebec7d5bd14f71427d1e84f3dd0314c0f7b2291e5b200ac8c7c3b92560405160405180910390a45b505b50505f90815260046020526040902080546001600160a01b0319166001600160a01b0392909216919091179055565b610e42838383610f89565b6105be576001600160a01b038316610e7057604051637e27328960e01b8152600481018290526024016103fb565b60405163177e802f60e01b81526001600160a01b0383166004820152602481018290526044016103fb565b5f8072184f03e93ff9f4daa797ed6e38ed64bf6a1f0160401b8310610ed95772184f03e93ff9f4daa797ed6e38ed64bf6a1f0160401b830492506040015b6d04ee2d6d415b85acef81000000008310610f05576d04ee2d6d415b85acef8100000000830492506020015b662386f26fc100008310610f2357662386f26fc10000830492506010015b6305f5e1008310610f3b576305f5e100830492506008015b6127108310610f4f57612710830492506004015b60648310610f61576064830492506002015b600a831061030b5760010192915050565b610f7c8383610fed565b6105be335f858585610b62565b5f6001600160a01b03831615801590610fe55750826001600160a01b0316846001600160a01b03161480610fc25750610fc2848461087c565b80610fe557505f828152600460205260409020546001600160a01b038481169116145b949350505050565b6001600160a01b03821661101657604051633250574960e11b81525f60048201526024016103fb565b5f61102283835f61092b565b90506001600160a01b038116156105be576040516339e3563760e11b81525f60048201526024016103fb565b6001600160e01b0319811681146108e3575f80fd5b5f60208284031215611073575f80fd5b81356107bf8161104e565b5f5b83811015611098578181015183820152602001611080565b50505f910152565b5f81518084526110b781602086016020860161107e565b601f01601f19169290920160200192915050565b602081525f6107bf60208301846110a0565b5f602082840312156110ed575f80fd5b5035919050565b80356001600160a01b038116811461110a575f80fd5b919050565b5f8060408385031215611120575f80fd5b611129836110f4565b946020939093013593505050565b5f805f60608486031215611149575f80fd5b611152846110f4565b9250611160602085016110f4565b9150604084013590509250925092565b608081525f61118260808301876110a0565b60208301959095525060408101929092526001600160a01b0316606090910152919050565b5f8083601f8401126111b7575f80fd5b50813567ffffffffffffffff8111156111ce575f80fd5b6020830191508360208285010111156111e5575f80fd5b9250929050565b5f805f80606085870312156111ff575f80fd5b84359350602085013567ffffffffffffffff81111561121c575f80fd5b611228878288016111a7565b9598909750949560400135949350505050565b5f6020828403121561124b575f80fd5b6107bf826110f4565b5f8060408385031215611265575f80fd5b61126e836110f4565b915060208301358015158114611282575f80fd5b809150509250929050565b634e487b7160e01b5f52604160045260245ffd5b5f805f80608085870312156112b4575f80fd5b6112bd856110f4565b93506112cb602086016110f4565b925060408501359150606085013567ffffffffffffffff808211156112ee575f80fd5b818701915087601f830112611301575f80fd5b8135818111156113135761131361128d565b604051601f8201601f19908116603f0116810190838211818310171561133b5761133b61128d565b816040528281528a6020848701011115611353575f80fd5b826020860160208301375f60208483010152809550505050505092959194509250565b5f805f8060608587031215611389575f80fd5b611392856110f4565b9350602085013567ffffffffffffffff81111561121c575f80fd5b5f80604083850312156113be575f80fd5b6113c7836110f4565b91506113d5602084016110f4565b90509250929050565b600181811c908216806113f257607f821691505b60208210810361141057634e487b7160e01b5f52602260045260245ffd5b50919050565b601f8211156105be57805f5260205f20601f840160051c8101602085101561143b5750805b601f840160051c820191505b81811015610c83575f8155600101611447565b67ffffffffffffffff8311156114725761147261128d565b6114868361148083546113de565b83611416565b5f601f8411600181146114b7575f85156114a05750838201355b5f19600387901b1c1916600186901b178355610c83565b5f83815260208120601f198716915b828110156114e657868501358255602094850194600190920191016114c6565b5086821015611502575f1960f88860031b161c19848701351681555b505060018560011b0183555050505050565b634e487b7160e01b5f52601160045260245ffd5b8082018082111561030b5761030b611514565b81835281816020850137505f828201602090810191909152601f909101601f19169091010190565b606081525f61157660608301868861153b565b6020830194909452506040015292915050565b5f835161159a81846020880161107e565b8351908301906115ae81836020880161107e565b01949350505050565b5f600182016115c8576115c8611514565b5060010190565b6001600160a01b03858116825284166020820152604081018390526080606082018190525f90611601908301846110a0565b9695505050505050565b5f6020828403121561161b575f80fd5b81516107bf8161104e56fea2646970667358221220dd350c509409eaffaa4488b5654fc118ba63ce770ce359916c215baf3efb74f664736f6c63430008180033",
  "linkReferences": {},
  "deployedLinkReferences": {}
}